{"abi":[{"type":"constructor","inputs":[{"name":"_token","type":"address","internalType":"address"},{"name":"_entryAmount","type":"uint256","internalType":"uint256"}],"stateMutability":"nonpayable"},{"type":"function","name":"closeContest","inputs":[],"outputs":[],"stateMutability":"nonpayable"},{"type":"function","name":"enter","inputs":[{"name":"amount","type":"uint256","internalType":"uint256"}],"outputs":[],"stateMutability":"nonpayable"},{"type":"function","name":"entries","inputs":[{"name":"","type":"uint256","internalType":"uint256"}],"outputs":[{"name":"user","type":"address","internalType":"address"},{"name":"amount","type":"uint256","internalType":"uint256"}],"stateMutability":"view"},{"type":"function","name":"entryAmount","inputs":[],"outputs":[{"name":"","type":"uint256","internalType":"uint256"}],"stateMutability":"view"},{"type":"function","name":"getEntry","inputs":[{"name":"index","type":"uint256","internalType":"uint256"}],"outputs":[{"name":"user","type":"address","internalType":"address"},{"name":"amount","type":"uint256","internalType":"uint256"}],"stateMutability":"view"},{"type":"function","name":"getEntryCount","inputs":[],"outputs":[{"name":"","type":"uint256","internalType":"uint256"}],"stateMutability":"view"},{"type":"function","name":"getWinners","inputs":[],"outputs":[{"name":"","type":"address[]","internalType":"address[]"}],"stateMutability":"view"},{"type":"function","name":"isContestOpen","inputs":[],"outputs":[{"name":"","type":"bool","internalType":"bool"}],"stateMutability":"view"},{"type":"function","name":"openContest","inputs":[],"outputs":[],"stateMutability":"nonpayable"},{"type":"function","name":"selectWinners","inputs":[{"name":"numWinners","type":"uint8","internalType":"uint8"}],"outputs":[],"stateMutability":"nonpayable"},{"type":"function","name":"token","inputs":[],"outputs":[{"name":"","type":"address","internalType":"contract IERC20"}],"stateMutability":"view"},{"type":"function","name":"winners","inputs":[{"name":"","type":"uint256","internalType":"uint256"}],"outputs":[{"name":"","type":"address","internalType":"address"}],"stateMutability":"view"},{"type":"function","name":"winnersSelected","inputs":[],"outputs":[{"name":"","type":"bool","internalType":"bool"}],"stateMutability":"view"},{"type":"event","name":"ContestClosed","inputs":[],"anonymous":false},{"type":"event","name":"ContestOpened","inputs":[],"anonymous":false},{"type":"event","name":"ParticipantEntered","inputs":[{"name":"user","type":"address","indexed":true,"internalType":"address"},{"name":"amount","type":"uint256","indexed":false,"internalType":"uint256"}],"anonymous":false},{"type":"event","name":"WinnersSelected","inputs":[{"name":"winners","type":"address[]","indexed":false,"internalType":"address[]"},{"name":"amounts","type":"uint256[]","indexed":false,"internalType":"uint256[]"}],"anonymous":false},{"type":"error","name":"AlreadySelectedWinners","inputs":[]},{"type":"error","name":"ContestClosed_CannotDeposit","inputs":[]},{"type":"error","name":"ContestOpen_CannotSelectWinners","inputs":[]},{"type":"error","name":"InvalidAmount_ExactAmountRequired","inputs":[]},{"type":"error","name":"NoParticipants","inputs":[]},{"type":"error","name":"TransferFailed","inputs":[]}],"bytecode":{"object":"0x60c060405234801561000f575f5ffd5b506040516117d53803806117d58339818101604052810190610031919061011e565b8173ffffffffffffffffffffffffffffffffffffffff1660808173ffffffffffffffffffffffffffffffffffffffff16815250508060a0818152505060015f5f6101000a81548160ff021916908315150217905550505061015c565b5f5ffd5b5f73ffffffffffffffffffffffffffffffffffffffff82169050919050565b5f6100ba82610091565b9050919050565b6100ca816100b0565b81146100d4575f5ffd5b50565b5f815190506100e5816100c1565b92915050565b5f819050919050565b6100fd816100eb565b8114610107575f5ffd5b50565b5f81519050610118816100f4565b92915050565b5f5f604083850312156101345761013361008d565b5b5f610141858286016100d7565b92505060206101528582860161010a565b9150509250929050565b60805160a05161163c6101995f395f81816109c60152610aaf01525f81816103bd0152818161082b01528181610bac0152610e4e015261163c5ff3fe608060405234801561000f575f5ffd5b50600436106100cd575f3560e01c8063a094c6321161008a578063b30906d411610064578063b30906d4146101c5578063bae78d7b146101f6578063df15c37e14610227578063fc0c546a14610245576100cd565b8063a094c6321461016f578063a2fb117514610179578063a59f3e0c146101a9576100cd565b80633b9771dd146100d15780635787bbe3146100db5780637a360e65146100f95780638bb01fbc146101175780638bc5328514610133578063991def3c14610151575b5f5ffd5b6100d9610263565b005b6100e36102aa565b6040516100f09190610f2c565b60405180910390f35b6101016102bb565b60405161010e9190610f5d565b60405180910390f35b610131600480360381019061012c9190610fb0565b6102c7565b005b61013b6109b2565b6040516101489190610f2c565b60405180910390f35b6101596109c4565b6040516101669190610f5d565b60405180910390f35b6101776109e8565b005b610193600480360381019061018e9190611005565b610a2e565b6040516101a0919061106f565b60405180910390f35b6101c360048036038101906101be9190611005565b610a69565b005b6101df60048036038101906101da9190611005565b610cd2565b6040516101ed929190611088565b60405180910390f35b610210600480360381019061020b9190611005565b610d20565b60405161021e929190611088565b60405180910390f35b61022f610dc1565b60405161023c9190611166565b60405180910390f35b61024d610e4c565b60405161025a91906111e1565b60405180910390f35b60015f5f6101000a81548160ff0219169083151502179055507f6cfe45f91a966281976e88f881041f868bc0df92cbd2c4bd32f3b9cc9bd0824360405160405180910390a1565b5f5f9054906101000a900460ff1681565b5f600180549050905090565b5f5f9054906101000a900460ff161561030c576040517f0a266cec00000000000000000000000000000000000000000000000000000000815260040160405180910390fd5b60035f9054906101000a900460ff1615610352576040517fe0751ef100000000000000000000000000000000000000000000000000000000815260040160405180910390fd5b5f60018054905003610390576040517f8b6a473000000000000000000000000000000000000000000000000000000000815260040160405180910390fd5b60058160ff1611156103a157600590505b6001805490508160ff1611156103ba5760018054905090505b5f7f000000000000000000000000000000000000000000000000000000000000000073ffffffffffffffffffffffffffffffffffffffff166370a08231306040518263ffffffff1660e01b8152600401610414919061106f565b602060405180830381865afa15801561042f573d5f5f3e3d5ffd5b505050506040513d601f19601f82011682018060405250810190610453919061120e565b90505f8260ff16826104659190611293565b90505f8360ff1667ffffffffffffffff811115610485576104846112c3565b5b6040519080825280602002602001820160405280156104b35781602001602082028036833780820191505090505b5090505f8460ff1667ffffffffffffffff8111156104d4576104d36112c3565b5b6040519080825280602002602001820160405280156105025781602001602082028036833780820191505090505b5090505f60018054905067ffffffffffffffff811115610525576105246112c3565b5b6040519080825280602002602001820160405280156105535781602001602082028036833780820191505090505b5090505f5f90505b600180549050811015610604576001818154811061057c5761057b6112f0565b5b905f5260205f2090600202015f015f9054906101000a900473ffffffffffffffffffffffffffffffffffffffff168282815181106105bd576105bc6112f0565b5b602002602001019073ffffffffffffffffffffffffffffffffffffffff16908173ffffffffffffffffffffffffffffffffffffffff1681525050808060010191505061055b565b505f60018054905067ffffffffffffffff811115610625576106246112c3565b5b6040519080825280602002602001820160405280156106535781602001602082028036833780820191505090505b5090505f5f90505b600180549050811015610695578082828151811061067c5761067b6112f0565b5b602002602001018181525050808060010191505061065b565b505f444243336040516020016106ae9493929190611382565b604051602081830303815290604052805190602001205f1c90505f5f90505b8860ff1681101561093d575f816001805490506106ea91906113cf565b90505f81846106f99190611402565b90505f83826107089190611432565b90505f86828151811061071e5761071d6112f0565b5b6020026020010151905086858151811061073b5761073a6112f0565b5b6020026020010151878381518110610756576107556112f0565b5b60200260200101818152505080878681518110610776576107756112f0565b5b6020026020010181815250505f88888781518110610797576107966112f0565b5b6020026020010151815181106107b0576107af6112f0565b5b60200260200101519050808b87815181106107ce576107cd6112f0565b5b602002602001019073ffffffffffffffffffffffffffffffffffffffff16908173ffffffffffffffffffffffffffffffffffffffff16815250508b8a878151811061081c5761081b6112f0565b5b6020026020010181815250505f7f000000000000000000000000000000000000000000000000000000000000000073ffffffffffffffffffffffffffffffffffffffff1663a9059cbb838f6040518363ffffffff1660e01b8152600401610884929190611088565b6020604051808303815f875af11580156108a0573d5f5f3e3d5ffd5b505050506040513d601f19601f820116820180604052508101906108c4919061148f565b9050806108fd576040517f90b8ec1800000000000000000000000000000000000000000000000000000000815260040160405180910390fd5b87876040516020016109109291906114ba565b604051602081830303815290604052805190602001205f1c975050505050505080806001019150506106cd565b508460029080519060200190610954929190610e70565b50600160035f6101000a81548160ff0219169083151502179055507fae7f116cfcc00d37db3af483a70d32b60c3f692441110643896c1f174eec0f9e85856040516109a092919061159c565b60405180910390a15050505050505050565b60035f9054906101000a900460ff1681565b7f000000000000000000000000000000000000000000000000000000000000000081565b5f5f5f6101000a81548160ff0219169083151502179055507fef19c40e684c836035e6598f5d86819dfec89371571efdeed79473397397114360405160405180910390a1565b60028181548110610a3d575f80fd5b905f5260205f20015f915054906101000a900473ffffffffffffffffffffffffffffffffffffffff1681565b5f5f9054906101000a900460ff16610aad576040517f82c6bbca00000000000000000000000000000000000000000000000000000000815260040160405180910390fd5b7f00000000000000000000000000000000000000000000000000000000000000008114610b06576040517f3959525500000000000000000000000000000000000000000000000000000000815260040160405180910390fd5b600160405180604001604052803373ffffffffffffffffffffffffffffffffffffffff16815260200183815250908060018154018082558091505060019003905f5260205f2090600202015f909190919091505f820151815f015f6101000a81548173ffffffffffffffffffffffffffffffffffffffff021916908373ffffffffffffffffffffffffffffffffffffffff1602179055506020820151816001015550505f7f000000000000000000000000000000000000000000000000000000000000000073ffffffffffffffffffffffffffffffffffffffff166323b872dd3330856040518463ffffffff1660e01b8152600401610c07939291906115d1565b6020604051808303815f875af1158015610c23573d5f5f3e3d5ffd5b505050506040513d601f19601f82011682018060405250810190610c47919061148f565b905080610c80576040517f90b8ec1800000000000000000000000000000000000000000000000000000000815260040160405180910390fd5b3373ffffffffffffffffffffffffffffffffffffffff167f9211e85c505f78a7153ac4ea4ed0458d1f7c324b15adc37a02ffacbe5045b69983604051610cc69190610f5d565b60405180910390a25050565b60018181548110610ce1575f80fd5b905f5260205f2090600202015f91509050805f015f9054906101000a900473ffffffffffffffffffffffffffffffffffffffff16908060010154905082565b5f5f5f60018481548110610d3757610d366112f0565b5b905f5260205f2090600202016040518060400160405290815f82015f9054906101000a900473ffffffffffffffffffffffffffffffffffffffff1673ffffffffffffffffffffffffffffffffffffffff1673ffffffffffffffffffffffffffffffffffffffff1681526020016001820154815250509050805f015181602001519250925050915091565b60606002805480602002602001604051908101604052809291908181526020018280548015610e4257602002820191905f5260205f20905b815f9054906101000a900473ffffffffffffffffffffffffffffffffffffffff1673ffffffffffffffffffffffffffffffffffffffff1681526020019060010190808311610df9575b5050505050905090565b7f000000000000000000000000000000000000000000000000000000000000000081565b828054828255905f5260205f20908101928215610ee6579160200282015b82811115610ee5578251825f6101000a81548173ffffffffffffffffffffffffffffffffffffffff021916908373ffffffffffffffffffffffffffffffffffffffff16021790555091602001919060010190610e8e565b5b509050610ef39190610ef7565b5090565b5b80821115610f0e575f815f905550600101610ef8565b5090565b5f8115159050919050565b610f2681610f12565b82525050565b5f602082019050610f3f5f830184610f1d565b92915050565b5f819050919050565b610f5781610f45565b82525050565b5f602082019050610f705f830184610f4e565b92915050565b5f5ffd5b5f60ff82169050919050565b610f8f81610f7a565b8114610f99575f5ffd5b50565b5f81359050610faa81610f86565b92915050565b5f60208284031215610fc557610fc4610f76565b5b5f610fd284828501610f9c565b91505092915050565b610fe481610f45565b8114610fee575f5ffd5b50565b5f81359050610fff81610fdb565b92915050565b5f6020828403121561101a57611019610f76565b5b5f61102784828501610ff1565b91505092915050565b5f73ffffffffffffffffffffffffffffffffffffffff82169050919050565b5f61105982611030565b9050919050565b6110698161104f565b82525050565b5f6020820190506110825f830184611060565b92915050565b5f60408201905061109b5f830185611060565b6110a86020830184610f4e565b9392505050565b5f81519050919050565b5f82825260208201905092915050565b5f819050602082019050919050565b6110e18161104f565b82525050565b5f6110f283836110d8565b60208301905092915050565b5f602082019050919050565b5f611114826110af565b61111e81856110b9565b9350611129836110c9565b805f5b8381101561115957815161114088826110e7565b975061114b836110fe565b92505060018101905061112c565b5085935050505092915050565b5f6020820190508181035f83015261117e818461110a565b905092915050565b5f819050919050565b5f6111a96111a461119f84611030565b611186565b611030565b9050919050565b5f6111ba8261118f565b9050919050565b5f6111cb826111b0565b9050919050565b6111db816111c1565b82525050565b5f6020820190506111f45f8301846111d2565b92915050565b5f8151905061120881610fdb565b92915050565b5f6020828403121561122357611222610f76565b5b5f611230848285016111fa565b91505092915050565b7f4e487b71000000000000000000000000000000000000000000000000000000005f52601260045260245ffd5b7f4e487b71000000000000000000000000000000000000000000000000000000005f52601160045260245ffd5b5f61129d82610f45565b91506112a883610f45565b9250826112b8576112b7611239565b5b828204905092915050565b7f4e487b71000000000000000000000000000000000000000000000000000000005f52604160045260245ffd5b7f4e487b71000000000000000000000000000000000000000000000000000000005f52603260045260245ffd5b5f819050919050565b61133761133282610f45565b61131d565b82525050565b5f8160601b9050919050565b5f6113538261133d565b9050919050565b5f61136482611349565b9050919050565b61137c6113778261104f565b61135a565b82525050565b5f61138d8287611326565b60208201915061139d8286611326565b6020820191506113ad8285611326565b6020820191506113bd828461136b565b60148201915081905095945050505050565b5f6113d982610f45565b91506113e483610f45565b92508282039050818111156113fc576113fb611266565b5b92915050565b5f61140c82610f45565b915061141783610f45565b92508261142757611426611239565b5b828206905092915050565b5f61143c82610f45565b915061144783610f45565b925082820190508082111561145f5761145e611266565b5b92915050565b61146e81610f12565b8114611478575f5ffd5b50565b5f8151905061148981611465565b92915050565b5f602082840312156114a4576114a3610f76565b5b5f6114b18482850161147b565b91505092915050565b5f6114c58285611326565b6020820191506114d58284611326565b6020820191508190509392505050565b5f81519050919050565b5f82825260208201905092915050565b5f819050602082019050919050565b61151781610f45565b82525050565b5f611528838361150e565b60208301905092915050565b5f602082019050919050565b5f61154a826114e5565b61155481856114ef565b935061155f836114ff565b805f5b8381101561158f578151611576888261151d565b975061158183611534565b925050600181019050611562565b5085935050505092915050565b5f6040820190508181035f8301526115b4818561110a565b905081810360208301526115c88184611540565b90509392505050565b5f6060820190506115e45f830186611060565b6115f16020830185611060565b6115fe6040830184610f4e565b94935050505056fea2646970667358221220d9d824407ec227b20deeb0e5d1a20eb1fef2cf74df88b55794378bb5e936763b64736f6c634300081e0033","linkReferences":{}},"methodIdentifiers":{"closeContest()":"a094c632","enter(uint256)":"a59f3e0c","entries(uint256)":"b30906d4","entryAmount()":"991def3c","getEntry(uint256)":"bae78d7b","getEntryCount()":"7a360e65","getWinners()":"df15c37e","isContestOpen()":"5787bbe3","openContest()":"3b9771dd","selectWinners(uint8)":"8bb01fbc","token()":"fc0c546a","winners(uint256)":"a2fb1175","winnersSelected()":"8bc53285"},"id":23}