{"abi":[{"type":"function","name":"bulkSendNative","inputs":[{"name":"recipients","type":"address[]","internalType":"address[]"},{"name":"amountPerRecipient","type":"uint256","internalType":"uint256"}],"outputs":[],"stateMutability":"payable"},{"type":"function","name":"bulkSendToken","inputs":[{"name":"token","type":"address","internalType":"address"},{"name":"recipients","type":"address[]","internalType":"address[]"},{"name":"amountPerRecipient","type":"uint256","internalType":"uint256"}],"outputs":[],"stateMutability":"nonpayable"},{"type":"event","name":"BulkSentNative","inputs":[{"name":"recipients","type":"address[]","indexed":false,"internalType":"address[]"},{"name":"amountPerRecipient","type":"uint256","indexed":false,"internalType":"uint256"},{"name":"totalSent","type":"uint256","indexed":false,"internalType":"uint256"}],"anonymous":false},{"type":"event","name":"BulkSentToken","inputs":[{"name":"token","type":"address","indexed":true,"internalType":"address"},{"name":"recipients","type":"address[]","indexed":false,"internalType":"address[]"},{"name":"amountPerRecipient","type":"uint256","indexed":false,"internalType":"uint256"},{"name":"totalSent","type":"uint256","indexed":false,"internalType":"uint256"}],"anonymous":false},{"type":"error","name":"EmptyRecipientsList","inputs":[]},{"type":"error","name":"InsufficientBalance","inputs":[]},{"type":"error","name":"TransferFailed","inputs":[]},{"type":"error","name":"ZeroAmount","inputs":[]}],"bytecode":{"object":"0x6080604052348015600e575f5ffd5b50610aaf8061001c5f395ff3fe608060405260043610610028575f3560e01c80630d9f360c1461002c578063e83e298314610054575b5f5ffd5b348015610037575f5ffd5b50610052600480360381019061004d919061069d565b610070565b005b61006e6004803603810190610069919061070e565b610305565b005b5f83839050036100ac576040517fb54aa4a500000000000000000000000000000000000000000000000000000000815260040160405180910390fd5b5f81036100e5576040517f1f2a200500000000000000000000000000000000000000000000000000000000815260040160405180910390fd5b5f83839050826100f59190610798565b90505f8573ffffffffffffffffffffffffffffffffffffffff166323b872dd3330856040518463ffffffff1660e01b8152600401610135939291906107f7565b6020604051808303815f875af1158015610151573d5f5f3e3d5ffd5b505050506040513d601f19601f820116820180604052508101906101759190610861565b9050806101ae576040517ff4d678b800000000000000000000000000000000000000000000000000000000815260040160405180910390fd5b5f5f90505b858590508110156102a8575f8773ffffffffffffffffffffffffffffffffffffffff1663a9059cbb8888858181106101ee576101ed61088c565b5b905060200201602081019061020391906108b9565b876040518363ffffffff1660e01b81526004016102219291906108e4565b6020604051808303815f875af115801561023d573d5f5f3e3d5ffd5b505050506040513d601f19601f820116820180604052508101906102619190610861565b90508061029a576040517f90b8ec1800000000000000000000000000000000000000000000000000000000815260040160405180910390fd5b5080806001019150506101b3565b508573ffffffffffffffffffffffffffffffffffffffff167fc8f35288b212d13b41931beb38f2d0faf8255a888850b1da105b53cf4addf31e868686866040516102f594939291906109c7565b60405180910390a2505050505050565b5f8383905003610341576040517fb54aa4a500000000000000000000000000000000000000000000000000000000815260040160405180910390fd5b5f810361037a576040517f1f2a200500000000000000000000000000000000000000000000000000000000815260040160405180910390fd5b5f838390508261038a9190610798565b9050803410156103c6576040517ff4d678b800000000000000000000000000000000000000000000000000000000815260040160405180910390fd5b5f5f90505b848490508110156104aa575f8585838181106103ea576103e961088c565b5b90506020020160208101906103ff91906108b9565b73ffffffffffffffffffffffffffffffffffffffff168460405161042290610a32565b5f6040518083038185875af1925050503d805f811461045c576040519150601f19603f3d011682016040523d82523d5f602084013e610461565b606091505b505090508061049c576040517f90b8ec1800000000000000000000000000000000000000000000000000000000815260040160405180910390fd5b5080806001019150506103cb565b507feb78a9d0bab525188609c707772398290b07ac9a8163fb78c45fc694ae8ec21c848484846040516104e094939291906109c7565b60405180910390a15f81346104f59190610a46565b90505f8111156105a0575f3373ffffffffffffffffffffffffffffffffffffffff168260405161052490610a32565b5f6040518083038185875af1925050503d805f811461055e576040519150601f19603f3d011682016040523d82523d5f602084013e610563565b606091505b505090508061059e576040517f90b8ec1800000000000000000000000000000000000000000000000000000000815260040160405180910390fd5b505b5050505050565b5f5ffd5b5f5ffd5b5f73ffffffffffffffffffffffffffffffffffffffff82169050919050565b5f6105d8826105af565b9050919050565b6105e8816105ce565b81146105f2575f5ffd5b50565b5f81359050610603816105df565b92915050565b5f5ffd5b5f5ffd5b5f5ffd5b5f5f83601f84011261062a57610629610609565b5b8235905067ffffffffffffffff8111156106475761064661060d565b5b60208301915083602082028301111561066357610662610611565b5b9250929050565b5f819050919050565b61067c8161066a565b8114610686575f5ffd5b50565b5f8135905061069781610673565b92915050565b5f5f5f5f606085870312156106b5576106b46105a7565b5b5f6106c2878288016105f5565b945050602085013567ffffffffffffffff8111156106e3576106e26105ab565b5b6106ef87828801610615565b9350935050604061070287828801610689565b91505092959194509250565b5f5f5f60408486031215610725576107246105a7565b5b5f84013567ffffffffffffffff811115610742576107416105ab565b5b61074e86828701610615565b9350935050602061076186828701610689565b9150509250925092565b7f4e487b71000000000000000000000000000000000000000000000000000000005f52601160045260245ffd5b5f6107a28261066a565b91506107ad8361066a565b92508282026107bb8161066a565b915082820484148315176107d2576107d161076b565b5b5092915050565b6107e2816105ce565b82525050565b6107f18161066a565b82525050565b5f60608201905061080a5f8301866107d9565b61081760208301856107d9565b61082460408301846107e8565b949350505050565b5f8115159050919050565b6108408161082c565b811461084a575f5ffd5b50565b5f8151905061085b81610837565b92915050565b5f60208284031215610876576108756105a7565b5b5f6108838482850161084d565b91505092915050565b7f4e487b71000000000000000000000000000000000000000000000000000000005f52603260045260245ffd5b5f602082840312156108ce576108cd6105a7565b5b5f6108db848285016105f5565b91505092915050565b5f6040820190506108f75f8301856107d9565b61090460208301846107e8565b9392505050565b5f82825260208201905092915050565b5f819050919050565b61092d816105ce565b82525050565b5f61093e8383610924565b60208301905092915050565b5f61095860208401846105f5565b905092915050565b5f602082019050919050565b5f610977838561090b565b93506109828261091b565b805f5b858110156109ba57610997828461094a565b6109a18882610933565b97506109ac83610960565b925050600181019050610985565b5085925050509392505050565b5f6060820190508181035f8301526109e081868861096c565b90506109ef60208301856107e8565b6109fc60408301846107e8565b95945050505050565b5f81905092915050565b50565b5f610a1d5f83610a05565b9150610a2882610a0f565b5f82019050919050565b5f610a3c82610a12565b9150819050919050565b5f610a508261066a565b9150610a5b8361066a565b9250828203905081811115610a7357610a7261076b565b5b9291505056fea26469706673582212209db70a4319912cf8e99b1065e4101f22f81a7dd5f158489210534149d0bf7d7a64736f6c634300081e0033","linkReferences":{}},"methodIdentifiers":{"bulkSendNative(address[],uint256)":"e83e2983","bulkSendToken(address,address[],uint256)":"0d9f360c"},"id":22}